{
	"data": {
		"bytecode": {
			"linkReferences": {},
			"object": "608060405234801561001057600080fd5b506102e7806100206000396000f3fe608060405234801561001057600080fd5b50600436106100365760003560e01c806323732d881461003b57806369d640fd14610057575b600080fd5b610055600480360381019061005091906101d4565b610087565b005b610071600480360381019061006c9190610198565b61012a565b60405161007e9190610232565b60405180910390f35b806000846103e881106100c3577f4e487b7100000000000000000000000000000000000000000000000000000000600052603260045260246000fd5b60640201836103e88110610100577f4e487b7100000000000000000000000000000000000000000000000000000000600052603260045260246000fd5b600a91828204019190066003026101000a81548162ffffff021916908360e81c0217905550505050565b6000826103e8811061013b57600080fd5b60640201816103e8811061014e57600080fd5b600a9182820401919006600302915091509054906101000a900460e81b81565b60008135905061017d81610283565b92915050565b6000813590506101928161029a565b92915050565b600080604083850312156101ab57600080fd5b60006101b985828601610183565b92505060206101ca85828601610183565b9150509250929050565b6000806000606084860312156101e957600080fd5b60006101f786828701610183565b935050602061020886828701610183565b92505060406102198682870161016e565b9150509250925092565b61022c8161024d565b82525050565b60006020820190506102476000830184610223565b92915050565b60007fffffff000000000000000000000000000000000000000000000000000000000082169050919050565b6000819050919050565b61028c8161024d565b811461029757600080fd5b50565b6102a381610279565b81146102ae57600080fd5b5056fea2646970667358221220285548cac4e3b0e05db3622fde64598fb552d0b9df102b627c73c0a98ce8927364736f6c63430008040033",
			"opcodes": "PUSH1 0x80 PUSH1 0x40 MSTORE CALLVALUE DUP1 ISZERO PUSH2 0x10 JUMPI PUSH1 0x0 DUP1 REVERT JUMPDEST POP PUSH2 0x2E7 DUP1 PUSH2 0x20 PUSH1 0x0 CODECOPY PUSH1 0x0 RETURN INVALID PUSH1 0x80 PUSH1 0x40 MSTORE CALLVALUE DUP1 ISZERO PUSH2 0x10 JUMPI PUSH1 0x0 DUP1 REVERT JUMPDEST POP PUSH1 0x4 CALLDATASIZE LT PUSH2 0x36 JUMPI PUSH1 0x0 CALLDATALOAD PUSH1 0xE0 SHR DUP1 PUSH4 0x23732D88 EQ PUSH2 0x3B JUMPI DUP1 PUSH4 0x69D640FD EQ PUSH2 0x57 JUMPI JUMPDEST PUSH1 0x0 DUP1 REVERT JUMPDEST PUSH2 0x55 PUSH1 0x4 DUP1 CALLDATASIZE SUB DUP2 ADD SWAP1 PUSH2 0x50 SWAP2 SWAP1 PUSH2 0x1D4 JUMP JUMPDEST PUSH2 0x87 JUMP JUMPDEST STOP JUMPDEST PUSH2 0x71 PUSH1 0x4 DUP1 CALLDATASIZE SUB DUP2 ADD SWAP1 PUSH2 0x6C SWAP2 SWAP1 PUSH2 0x198 JUMP JUMPDEST PUSH2 0x12A JUMP JUMPDEST PUSH1 0x40 MLOAD PUSH2 0x7E SWAP2 SWAP1 PUSH2 0x232 JUMP JUMPDEST PUSH1 0x40 MLOAD DUP1 SWAP2 SUB SWAP1 RETURN JUMPDEST DUP1 PUSH1 0x0 DUP5 PUSH2 0x3E8 DUP2 LT PUSH2 0xC3 JUMPI PUSH32 0x4E487B7100000000000000000000000000000000000000000000000000000000 PUSH1 0x0 MSTORE PUSH1 0x32 PUSH1 0x4 MSTORE PUSH1 0x24 PUSH1 0x0 REVERT JUMPDEST PUSH1 0x64 MUL ADD DUP4 PUSH2 0x3E8 DUP2 LT PUSH2 0x100 JUMPI PUSH32 0x4E487B7100000000000000000000000000000000000000000000000000000000 PUSH1 0x0 MSTORE PUSH1 0x32 PUSH1 0x4 MSTORE PUSH1 0x24 PUSH1 0x0 REVERT JUMPDEST PUSH1 0xA SWAP2 DUP3 DUP3 DIV ADD SWAP2 SWAP1 MOD PUSH1 0x3 MUL PUSH2 0x100 EXP DUP2 SLOAD DUP2 PUSH3 0xFFFFFF MUL NOT AND SWAP1 DUP4 PUSH1 0xE8 SHR MUL OR SWAP1 SSTORE POP POP POP POP JUMP JUMPDEST PUSH1 0x0 DUP3 PUSH2 0x3E8 DUP2 LT PUSH2 0x13B JUMPI PUSH1 0x0 DUP1 REVERT JUMPDEST PUSH1 0x64 MUL ADD DUP2 PUSH2 0x3E8 DUP2 LT PUSH2 0x14E JUMPI PUSH1 0x0 DUP1 REVERT JUMPDEST PUSH1 0xA SWAP2 DUP3 DUP3 DIV ADD SWAP2 SWAP1 MOD PUSH1 0x3 MUL SWAP2 POP SWAP2 POP SWAP1 SLOAD SWAP1 PUSH2 0x100 EXP SWAP1 DIV PUSH1 0xE8 SHL DUP2 JUMP JUMPDEST PUSH1 0x0 DUP2 CALLDATALOAD SWAP1 POP PUSH2 0x17D DUP2 PUSH2 0x283 JUMP JUMPDEST SWAP3 SWAP2 POP POP JUMP JUMPDEST PUSH1 0x0 DUP2 CALLDATALOAD SWAP1 POP PUSH2 0x192 DUP2 PUSH2 0x29A JUMP JUMPDEST SWAP3 SWAP2 POP POP JUMP JUMPDEST PUSH1 0x0 DUP1 PUSH1 0x40 DUP4 DUP6 SUB SLT ISZERO PUSH2 0x1AB JUMPI PUSH1 0x0 DUP1 REVERT JUMPDEST PUSH1 0x0 PUSH2 0x1B9 DUP6 DUP3 DUP7 ADD PUSH2 0x183 JUMP JUMPDEST SWAP3 POP POP PUSH1 0x20 PUSH2 0x1CA DUP6 DUP3 DUP7 ADD PUSH2 0x183 JUMP JUMPDEST SWAP2 POP POP SWAP3 POP SWAP3 SWAP1 POP JUMP JUMPDEST PUSH1 0x0 DUP1 PUSH1 0x0 PUSH1 0x60 DUP5 DUP7 SUB SLT ISZERO PUSH2 0x1E9 JUMPI PUSH1 0x0 DUP1 REVERT JUMPDEST PUSH1 0x0 PUSH2 0x1F7 DUP7 DUP3 DUP8 ADD PUSH2 0x183 JUMP JUMPDEST SWAP4 POP POP PUSH1 0x20 PUSH2 0x208 DUP7 DUP3 DUP8 ADD PUSH2 0x183 JUMP JUMPDEST SWAP3 POP POP PUSH1 0x40 PUSH2 0x219 DUP7 DUP3 DUP8 ADD PUSH2 0x16E JUMP JUMPDEST SWAP2 POP POP SWAP3 POP SWAP3 POP SWAP3 JUMP JUMPDEST PUSH2 0x22C DUP2 PUSH2 0x24D JUMP JUMPDEST DUP3 MSTORE POP POP JUMP JUMPDEST PUSH1 0x0 PUSH1 0x20 DUP3 ADD SWAP1 POP PUSH2 0x247 PUSH1 0x0 DUP4 ADD DUP5 PUSH2 0x223 JUMP JUMPDEST SWAP3 SWAP2 POP POP JUMP JUMPDEST PUSH1 0x0 PUSH32 0xFFFFFF0000000000000000000000000000000000000000000000000000000000 DUP3 AND SWAP1 POP SWAP2 SWAP1 POP JUMP JUMPDEST PUSH1 0x0 DUP2 SWAP1 POP SWAP2 SWAP1 POP JUMP JUMPDEST PUSH2 0x28C DUP2 PUSH2 0x24D JUMP JUMPDEST DUP2 EQ PUSH2 0x297 JUMPI PUSH1 0x0 DUP1 REVERT JUMPDEST POP JUMP JUMPDEST PUSH2 0x2A3 DUP2 PUSH2 0x279 JUMP JUMPDEST DUP2 EQ PUSH2 0x2AE JUMPI PUSH1 0x0 DUP1 REVERT JUMPDEST POP JUMP INVALID LOG2 PUSH5 0x6970667358 0x22 SLT KECCAK256 0x28 SSTORE 0x48 0xCA 0xC4 0xE3 0xB0 0xE0 0x5D 0xB3 PUSH3 0x2FDE64 MSIZE DUP16 0xB5 MSTORE 0xD0 0xB9 0xDF LT 0x2B PUSH3 0x7C73C0 0xA9 DUP13 0xE8 SWAP3 PUSH20 0x64736F6C63430008040033000000000000000000 "
		},
		"gasEstimates": {
			"creation": {
				"codeDepositCost": "148600",
				"executionCost": "196",
				"totalCost": "148796"
			},
			"external": {
				"colorPixel(uint256,uint256,bytes3)": "infinite",
				"pixels(uint256,uint256)": "infinite"
			}
		},
		"methodIdentifiers": {
			"colorPixel(uint256,uint256,bytes3)": "23732d88",
			"pixels(uint256,uint256)": "69d640fd"
		}
	},
	"abi": [
		{
			"inputs": [
				{
					"internalType": "uint256",
					"name": "x",
					"type": "uint256"
				},
				{
					"internalType": "uint256",
					"name": "y",
					"type": "uint256"
				},
				{
					"internalType": "bytes3",
					"name": "color",
					"type": "bytes3"
				}
			],
			"name": "colorPixel",
			"outputs": [],
			"stateMutability": "nonpayable",
			"type": "function"
		},
		{
			"inputs": [
				{
					"internalType": "uint256",
					"name": "",
					"type": "uint256"
				},
				{
					"internalType": "uint256",
					"name": "",
					"type": "uint256"
				}
			],
			"name": "pixels",
			"outputs": [
				{
					"internalType": "bytes3",
					"name": "",
					"type": "bytes3"
				}
			],
			"stateMutability": "view",
			"type": "function"
		}
	]
}